:100000000C945A000C946F000C946F000C946F00C9
:100010000C946F000C946F000C946F000C946F00A4
:100020000C946F000C946F000C946F000C946F0094
:100030000C946F000C946F000C946F000C946F0084
:100040000C946F000C946F000C946F000C946F0074
:100050000C946F000C946F000C946F000C946F0064
:100060000C946F000C946F000C946F000C946F0054
:100070000C946F000C946F000C946F000C946F0044
:100080000C946F000C946F000C946F000C946F0034
:100090000C946F000C946F000C946F000C946F0024
:1000A0000C946F000C946F000C946F000C946F0014
:1000B0000C946F0011241FBECFEFD8E0DEBFCDBF80
:1000C00011E0A0E0B1E0E2EEF1E002C005900D9297
:1000D000A031B107D9F70E949E000C94EF000C9458
:1000E00000008AB18F608AB984B1807F84B985B1FC
:1000F0008F6085B98BB1806F8BB98AB180648AB902
:10010000089594B5936094BD95B5986095BD94B5E8
:10011000906494BD88BD880F87BD85B5856085BD19
:1001200083B190E0062E02C0959587950A94E2F778
:1001300080FFF6CF84B58F7B84BD0895CF93DF9386
:10014000CDB7DEB760970FB6F894DEBF0FBECDBF58
:1001500080E1E0E0F1E0DE01119601900D928A95D8
:10016000E1F70E94710000E037C08BB1C02ED12CA6
:1001700021E030E07901002E02C0EE0CFF1C0A9451
:10018000E2F79E2D909589238BB910E01FC083B1B3
:10019000212F30E090E0012E02C0959587950A94BA
:1001A000E2F780FD12C0C601880F991F880F991FC2
:1001B00041E050E04C0F5D1F840F951FFC01E20FE2
:1001C000F31F612F80810E9481001F5F1430F8F2BD
:1001D0008BB1E82AEBB80F5F043038F2C4CFF89443
:0201E000FFCF4F
:1001E20023211F1D1B1A18171514131211100F0E9D
:00000001FF
